:020000040800F2
:10000000B8070020890100083122000859200008A3
:100010002D220008C1030008E528000800000000A8
:100020000000000000000000000000009122000815
:10003000C50300080000000061220008C522000876
:10004000A3010008A3010008A3010008A301000800
:10005000A3010008A3010008A3010008A3010008F0
:10006000A3010008A3010008A3010008A3010008E0
:10007000A3010008A3010008A3010008A3010008D0
:10008000A3010008A3010008A3010008A3010008C0
:10009000A3010008A3010008A3010008A3010008B0
:1000A000A3010008A3010008A3010008A3010008A0
:1000B000A3010008A3010008A3010008A301000890
:1000C000A3010008A3010008A3010008A301000880
:1000D000A3010008D5280008A3010008A301000817
:1000E000A3010008A3010008A301000800F002F822
:1000F00000F03AF80AA090E8000C82448344AAF188
:100100000107DA4501D100F02FF8AFF2090EBAE885
:100110000F0013F0010F18BFFB1A43F0010318473B
:100120006832000088320000103A24BF78C878C1D5
:10013000FAD8520724BF30C830C144BF04680C60ED
:10014000704700000023002400250026103A28BF35
:1001500078C1FBD8520728BF30C148BF0B60704739
:100160001FB51FBD10B510BD00F07AF81146FFF79E
:10017000F7FF02F081FD00F098F803B4FFF7F2FFFB
:1001800003BC00F09FF80000094880470948004779
:10019000FEE7FEE7FEE7FEE7FEE7FEE7FEE7FEE737
:1001A000FEE7FEE704480549054A064B7047000094
:1001B00049230008ED000008B8010020B80700201E
:1001C000B8030020B80300204FF000020429C0F05B
:1001D000128010F0030C00F01B80CCF1040CBCF179
:1001E000020F18BF00F8012BA8BF20F8022BA1EBCB
:1001F0000C0100F00DB85FEAC17C24BF00F8012BB0
:1002000000F8012B48BF00F8012B70474FF00002A7
:1002100000B5134694469646203922BFA0E80C50FC
:10022000A0E80C50B1F12001BFF4F7AF090728BFD7
:10023000A0E80C5048BF0CC05DF804EB890028BF53
:1002400040F8042B08BF704748BF20F8022B11F07C
:10025000804F18BF00F8012B7047704770477047F8
:10026000754600F02BF8AE4605006946534620F06F
:100270000700854618B020B5FFF794FFBDE8204081
:100280004FF000064FF000074FF000084FF0000B52
:10029000AC46ACE8C009ACE8C009ACE8C009ACE8C1
:1002A000C00921F007018D46704710B50446AFF331
:1002B00000802046BDE81040FFF75FBF0048704750
:1002C0004000002001491820ABBEFEE726000200D6
:1002D00070470000B0B5044600688168C90709D0BE
:1002E000816821F00101816000F054FE2168896875
:1002F000C90701D10020B0BD054603E02068806831
:10030000C007F7D000F046FE401B0328F6D3206854
:100310008068C007F2D0A06A40F01000A062E06AD6
:1003200040F00100E0620120B0BD0000B0B582B035
:1003300004460020019021688A68D2073DD1886870
:1003400040F00100886040F20000C2F20000006846
:100350004DF68361C4F21B31A0FB0101880C00BF84
:100360000190019810B101980138F9E700F012FEF0
:1003700021688968C9071CD1054603E020688068A8
:10038000C00719D100F006FE401B0328F6D32068F1
:100390008068C007F2D1A06A40F01000A062E06A55
:1003A00040F00100E062002084F82400012002B047
:1003B000B0BD002002B0B0BD002002B0B0BD000052
:1003C000FEE700007047000072B600BFFEE70000C5
:1003D00040F26010C2F200000021C16142F2100040
:1003E000C4F20200016841F004010160016841F0BB
:1003F000400101607047000040F26011C2F200014C
:100400000022CA6142F21001C4F202010A6842F0FD
:1004100002020A604860086840F0400008607047C7
:1004200040F26012C2F200020023D36142F21002D5
:10043000C4F20202136843F00103136001807047A5
:1004400042F20C00C4F202000168C90640F26011D9
:10045000C2F2000101D4002204E0CA6942F00202A3
:10046000CA61102203685B0705D5CB6942F004021C
:1004700043F00103CB610369DB0707D0CB6943F08D
:100480000403CB61016921F0010101610260704741
:10049000F0B581B042F20C060446C4F2020600F048
:1004A00079FD3168C90715D13068800644BF202026
:1004B00030603068C00608D43069C00705D13068A4
:1004C000400702D4002001B0F0BDFFF7B9FF0120C2
:1004D00001B0F0BD0546671C04D044B9032001B04B
:1004E000F0BD00BF3068C007DED0002FFAD000F0AA
:1004F00051FD401BA042F5D9F0E7000070B582B075
:1005000004460020019094F82400012801D102251E
:1005100068E0012084F824002046FFF7DBFE204637
:10052000FFF704FF0546002859D1A06A41F20211E5
:1005300088430230A06240F20000C2F20000066868
:10054000022000F0B3FDB6FBF0F0400001900198EE
:1005500010B101980138F9E72068816841F008017D
:10056000816000F017FD216851F8082F120711D59E
:10057000064603E020688168090709D500F00AFDF6
:10058000801B0B28F6D3206880680007F2D51EE098
:1005900000F10801086840F00400086000F0FAFC6F
:1005A00021688968490703D401206FF0030112E034
:1005B000064603E0206880684007F5D500F0EAFCB5
:1005C000801B0B28F6D3206880684007F2D50125F0
:1005D00010206FF01201A26A11400843A0620020AF
:1005E00084F82400284602B070BD0000B0B581B088
:1005F0000022009290F82420012A01D1022179E002
:100600004A680123062A80F8243005D803686FF071
:10061000040C03F1340E0AE003680C2A87BF03F1CF
:100620002C0E6FF0400C03F1300E6FF0220C02EB39
:100630008202DEF8005062441F230C68934025EAD2
:10064000030304FA02F21A43CEF80020D1F800E0C6
:1006500002680EEB4E051024BEF1090F88BF1E3D47
:1006600088BF0C2452F804C007238968AB402CEAE9
:100670000303A940194311512EF001014FF0000C62
:1006800010294FF0000133D1016842F20042C4F258
:100690000102914205D0816A41F02001816201216D
:1006A00026E09268120222D48A68BEF1100F42F44A
:1006B00000028A601BD140F20001C2F20001096809
:1006C0004DF68362C4F21B32A1FB0212910C01EBC6
:1006D000810149000091009949B100BF0099013999
:1006E0000091009900294FF00001F7D100E00021AE
:1006F00080F824C0084601B0B0BD00000068C06C9E
:1007000070470000002804BF01207047F0B581B099
:100710000746044657F8280F30B90020E06284F8F5
:100720002400204600F07AF82046FFF7D3FDA26AA5
:10073000A16A002808BF12F0100205D041F0100194
:100740000120396001B0F0BD41F202129143023143
:10075000A162E169D4E9013241EA0305511EB1FA0F
:1007600081F149091346B2F5807F18BF0B02267D3F
:10077000217B012E45EA410C11D141B1A16A41F022
:100780002001A162E16A41F00101E16207E0A16993
:100790004EF60006CFF6FF7606EB41310B4321689B
:1007A000B2F5807F4E6826F4694643EA06034B6043
:1007B0008B684FF2FD76CFF6E17603EA060343EA53
:1007C0000C038B6001D0012A06D122690023CFF6E9
:1007D000F07303EB025200E00022CB6A23F47003B3
:1007E0001A43CA62896840F6FE62CFF61F72114052
:1007F000614506D10021E162A16A012262F3010193
:100800009FE7A06A40F0100020F00200A06254F8B8
:100810002C0F40F001010120274692E780B586B0F9
:10082000014640F60000C4F20100096800F5E052FC
:1008300091424FF00001CDE90411CDE9021101D040
:1008400006B080BD41F21801C4F202010A6842F408
:1008500000720A600A6802F400720192019A0A6842
:1008600042F004020A60096801F004010191019953
:10087000802102910321039102A900F087FA06B0BA
:1008800080BD00002DE9F04182B000260D460446EF
:10089000019600F07FFB21688A68D2053CD480462F
:1008A0004868C00503D4C86A10F4700F3ED040F207
:1008B0000000C2F200000668022000F0F7FB216889
:1008C00044F624130A69B6FBF0F0C2F292431A42CE
:1008D00006D1CA6844F62413C0F292031A423ED0ED
:1008E0000A6942F29243C1F249231A4206D1CA6808
:1008F00042F29243C0F249031A4242D00A6949F2D5
:100900004923C0F224031A424FF0FC023AD1C968CD
:10091000194208BF542235E0A06A40F02000A062CE
:1009200084F82460012002B0BDE8F08120680068EE
:10093000800743D46E1C07E02068006880075CD500
:1009400020680068800739D4002EF9D0002DF3D03C
:1009500000F020FBA0EB0800A842EDD8F0E70A6900
:1009600042F29243C1F249231A424FF0290209D1BF
:10097000C96842F29243C0F24903194208BF1422E7
:1009800000E05422019902FB00F7B94216D26E1C16
:1009900009E000BF0198B8422FD3019801300190BF
:1009A0000198B8420AD2002EF7D0002DF2D000F004
:1009B000F1FAA0EB0800A842ECD8EEE720686FF04F
:1009C00012010160A16A41F40071A162806800F423
:1009D0006020B0F5602F0CD1207B50B9A06A20F4C4
:1009E0008070A062A06AC00403D4A06A40F0010035
:1009F000A062002002B0BDE8F081A06A40F00400CF
:100A0000A062002084F82400032002B0BDE8F08139
:100A100010B5044690F82400012804BF022010BD40
:100A2000012084F824002046FFF780FC18B1002143
:100A300084F8241010BD42F2044C2168A26AC4F26A
:100A4000010C40F201339A430CF57F7E02F580726F
:100A50007145A26207D0A26A22F48012A2624A689B
:100A6000520519D41DE0DCF8002012F4702FF2D0EA
:100A7000A26A42F60003C4F2010342F480129942D2
:100A8000A26205D042F20042C4F20102914208D1B2
:100A9000DCF80020520504D5A26A012363F30D326D
:100AA000A262A36A0022DB044FF0000344BFE36AA2
:100AB00023F00603E36284F824206FF002020A6048
:100AC0008A6802F46022B2F5602F0BD1714504D020
:100AD0008A6842F4A0028A6010BDDCF8002012F49B
:100AE000702FF5D08A6842F480128A6010BD000031
:100AF000014690F82100022813D10868D1E90FC3FC
:100B0000026822F00E020260026822F00102026016
:100B1000012000FA03F2CCF8042081F82100002023
:100B200002E0042088630120002281F82020704721
:100B300080B590F82110022923D10268116821F0B4
:100B40000E0111602F211368C4F202018A4240F2A3
:100B50000401C4F2020123F00103136016DD302307
:100B6000C4F202039A421DD04423C4F202039A4203
:100B70001BD05823C4F202039A421BD14FF4803396
:100B800020E0042181630121084680BD0823C4F2CE
:100B900002039A420CD01C23C4F202039A4209D1E8
:100BA00010230FE04FF480730CE04FF4805309E002
:100BB000012307E001F1680C4FF08073624508BF24
:100BC0004FF480130B60012180F82110426B00214B
:100BD00080F820100AB190470021084680BD00002F
:100BE0002DE9F04140F26018C2F2000898F8182090
:100BF000012A04BF0220BDE8F081054601202E68CD
:100C000088F818004CF250300C46FFF741FC022ED9
:100C100002D120B1012037E080B1012034E0FFF79C
:100C2000D7FB4CF25030FFF733FC42F21001C4F214
:100C300002010A6822F004020A6025E04FF0FF304A
:100C40002060D5E9026006EB8020864219D242F28C
:100C50001007C4F2020700BF3046FFF7CDFB4CF28D
:100C60005030FFF715FC396821F00201396050B9A6
:100C7000D5E9021206F5806601EB82218E42EBD3A4
:100C800002E0012000E02660002188F81810BDE88D
:100C9000F081000042F21001C4F20201086840F045
:100CA000800200200A6070472DE9F04F81B01C4699
:100CB00040F26013C2F2000392461A7E012A03D169
:100CC000022001B0BDE8F08F8146012018764CF279
:100CD00050300E46FFF7DCFBB0BB4D4642F210072A
:100CE000B9F1020F18BF0425C4F20207B9F1010FD0
:100CF00008BF4D4600214FF020096FF01F0B4FF049
:100D0000000800BF0A01A9EB011304FA03F32AFA51
:100D100002F206EB41001A430BEB0111002958BF08
:100D200024FA01F291B2FFF77BFB4CF25030FFF74F
:100D3000AFFB396821F00101396028B908F10108D9
:100D40005FFA88F18D42DDD840F260120021C2F2D4
:100D50000002117601B0BDE8F08F000042F20400FD
:100D6000C4F20200C16809065CBF0020704740F26F
:100D70002311C4F26751016048F6AB11CCF6EF5174
:100D80000160C068C0F3C010704700002DE9F04F4B
:100D900082B00E68002E00F0F38041F20042C4F2EF
:100DA0000102042340F2004E904208BF03234FF695
:100DB000FF7CC4F2010E009300240123C1F2100C49
:100DC0004FF0000A4FF0000941E0012504F00C0348
:100DD0000F279F402BEA070705FA03F33B4342F82E
:100DE00026304E6840F20C45F202DEF8082054BF6F
:100DF00022EA080242EA0802C4F20105CEF80820FD
:100E00002A68B30254BF22EA080242EA08022A60B2
:100E1000B303DEF8042054BF22EA080242EA0802C3
:100E2000F303CEF80420DEF800204FF0010354BF96
:100E300022EA080242EA0802CEF800200E680AF10F
:100E4000010A36FA0AF204F1040400F0998003FA68
:100E50000AFB16EA0B08F1D04A68624510DC122A38
:100E600050D8DFE802F0330A41454F4F4F4F4F4F04
:100E70004F4F4F4F4F4F4F484C00D1F80C9041E02F
:100E80004FF6FF75C1F22105AA420FDC0025C1F221
:100E90001105AA421AD00025C1F21205AA4215D0A6
:100EA0000025C1F22105AA4210D02BE00025C1F295
:100EB0002205AA420AD00025C1F23105AA4205D076
:100EC0000025C1F23205AA421CD100BF8A6842B196
:100ED000012A14BFC0F814B0C0F810B04FF00809D0
:100EE00010E04FF004090DE0CA6802F1080909E0BA
:100EF0004FF0000906E0CA6802F1040902E0CA687E
:100F000002F10C0922460546B8F5807F24BF203A3D
:100F100004352E680F279740BE4309FA02F2324388
:100F20002A60CA79D2067FF589AF41F21803C4F26C
:100F300002031A684FEA9A0642F001021A601A6820
:100F400040F6000302F001020192019AAEF57E72B2
:100F500052F826B0C4F2010398420FD040F6004385
:100F6000C4F2010398423FF430AF41F20003C4F2EF
:100F70000103009D984208BF022527E7002525E7C9
:100F800002B0BDE8F08F0000002A08BF090401612B
:100F90007047000040F2B010C2F2000000687047D5
:100FA00040F23A0040F2B011C2F20000C2F2000179
:100FB00000780A68104408607047000080B542F26B
:100FC0000000C4F20200016841F01001016003203A
:100FD00000F066F80F2000F005F800F02BF8002074
:100FE00080BD0000B0B540F23A02C2F2000240F209
:100FF00000011278C2F200014FF47A730968B3FB62
:10100000F2F20446B1FBF2F1084600F0E7FB0F2CC8
:101010004FF001050CD858B94FF0FF30214600229F
:10102000002500F02DF840F23C00C2F20000046000
:101030002846B0BD82B041F21800C4F20200016837
:10104000022241F001010160016801F001010191FA
:101050000199416841F080514160406800F0805042
:10106000009000980420C4F20100016862F31A6144
:10107000016002B07047000080B501F035FC80BD12
:1010800070B514460D46064601F03EFC2946224640
:1010900001F0D0F80146304601F03EFC70BD000082
:1010A00080B501F04BFC80BD01F058FC80B50128F3
:1010B00018D0022841D010283DD141F20401C4F2D9
:1010C00002010A6851F8040CC00134D5C2F3834010
:1010D0002EA3185CD2033FD440F60012C0F23D02AA
:1010E000504345E041F20400C4F20200C16940F2FD
:1010F00002320A40B2F5817F04BF4FF4004080BD48
:1011000001F44071B1F5407F0DD0B1F5007F12D1EF
:10111000026A920744BF49F6404080BDB1F5407F66
:101120001CBF002080BD50F8040C4FF22441800306
:1011300001EAE07080BD002080BD00F087F941F237
:101140000401C4F2020109680222C1F3813102EBF9
:101150004101B0FBF1F080BD0A6810A3C2F3404228
:101160009A5C41F20023C0F27A03B3FBF2F25043DF
:101170000968490248BF80BD4AF6AB214000CAF663
:10118000AA21A0FB0101480880BD00BF020304059D
:10119000060708090A0B0C0D0E0F101001020000C3
:1011A0002DE9F04182B00446007841F21C06C007E8
:1011B000C4F202064AD0306810F0805808D1306876
:1011C00040F080503060306800F08050019001980D
:1011D00047F20007C4F200073868C00512D4386827
:1011E00040F480703860FFF7D5FE05463868C005CA
:1011F00008D4FFF7CFFE401B6428F7D9032002B0C4
:10120000BDE8F081706810F4407012D0616801F49C
:10121000407188420DD0706840F24042C4F24222D0
:10122000012320F4407113600023C0071360716034
:1012300029D17068616820F440700843B8F1000F4C
:10124000706003D1306820F08050306020688107E2
:1012500007D556F8181CA26821F44041114346F8FE
:10126000181CC00603D4002002B0BDE8F08156F877
:10127000180CE16820F48000084346F8180C0020A0
:1012800002B0BDE8F081FFF785FE054641F28837E0
:1012900070688007CDD4FFF77DFE401BB8424FF049
:1012A0000300F5D9ECE700002DE9F04381B00028F8
:1012B00000F0898042F20008C4F202080446D8F81F
:1012C00000000D4600F0070088420CD2D8F800005C
:1012D00020F007002843C8F80000D8F8000000F00C
:1012E0000700A8426FD1206841F204098107C4F2C7
:1012F000020917D5410705D5D9F8001041F4E0617E
:10130000C9F80010010705D5D9F8001041F4605163
:10131000C9F80010D9F80010A26821F0F0011143BB
:10132000C9F80010C00745D1D8F8000000F0070048
:10133000A8420CD9D8F8000020F007002843C8F8CC
:101340000000D8F8000000F00700A8423BD1206858
:10135000410707D5D9F80010E26821F4E061114394
:10136000C9F80010000708D5D9F80000216920F459
:10137000605040EAC100C9F8000000F079F8D9F8DF
:10138000001043F27032C1F30311C0F60002515C49
:1013900040F2000220FA01F140F23C00C2F20000EB
:1013A0000068C2F200021160FFF71CFE002001B0CD
:1013B000BDE8F0836068022809D0012829D159F8D6
:1013C000041C890307D4012001B0BDE8F08359F85B
:1013D000041C8901F7D5D9F8001021F00301084356
:1013E000C9F80000FFF7D6FD064641F2883700BF76
:1013F000D9F80000616800F00C00B0EB810F93D0C9
:10140000FFF7C8FD801BB842F2D9032001B0BDE848
:10141000F08359F8041C8907D5D5DCE740F20000B9
:10142000C2F200000068704780B5FFF7F7FF41F295
:101430000401C4F20201096843F28032C1F30221BF
:10144000C0F60002515CC84080BD000080B5FFF7C7
:10145000E5FF41F20401C4F20201096843F280325F
:10146000C1F3C221C0F60002515CC84080BD00003B
:1014700041F2040CC4F2020CDCF8003003F00C0062
:10148000082841F20020C0F27A0018BF7047C3F369
:1014900083420AA18A5CD90305D440F60010C0F249
:1014A0003D0050437047DCF8001008A3C1F34041F1
:1014B000595C5043B0FBF1F0704700BF02030405D4
:1014C000060708090A0B0C0D0E0F10100102000090
:1014D0002DE9F04182B0002800F0C4800446007875
:1014E00041F20006C007C4F2020643D0706800F063
:1014F0000C00042817D0706800F00C00082802D1F6
:101500007068C0030FD465682DB1B5F5A02F10D059
:10151000B5F5803F11D0306820F4803030603068FD
:1015200020F480200CE03068800323D5606808BB7D
:1015300098E0306840F480203060306840F48030BB
:101540003060FFF727FD002D054610D0306880037E
:1015500010D4FFF71FFD401B6428F7D904E100BF3A
:10156000FFF718FD401B64284FF0030077D8306860
:101570008003F5D42078800718D5706810F00C0F20
:1015800007D0706800F00C00082826D17068C003EE
:1015900023D43068800702D52069012862D13068E1
:1015A000616920F0F80040EAC1003060207800074F
:1015B0003DD5A06938B30020C4F242200121C0F813
:1015C0008014FFF7E7FC0546706A80072DD4FFF70B
:1015D000E1FC401B0228F7D9C6E02069002840F250
:1015E0000000C4F2422000F0968001210160FFF764
:1015F000D1FC054630688007D1D4FFF7CBFC401BF7
:101600000228F7D9B0E00020C4F242200021C0F83F
:101610008014FFF7BFFC0546706A800707D5FFF707
:10162000B9FC401B0228F7D99EE000F01BFE207891
:1016300040071BD4E5698DB1706800F00C000828E4
:1016400047D1012D0ED07068216A00F480328A42A1
:1016500008D1616A00F47010884203D1002002B002
:10166000BDE8F081012002B0BDE8F081F06910F022
:10167000805808D1F06940F08050F061F06900F0C6
:1016800080500190019847F20007C4F200073868C3
:10169000C00510D4386840F480703860FFF77AFCD9
:1016A000054600BF3868C00505D4FFF773FC401B32
:1016B0006428F7D958E0E5681DB1052D3CD0012D0F
:1016C0003ED0306A20F001003062306A20F0040021
:1016D00039E00027C4F2422700203866FFF75AFCA1
:1016E000022D05460CD100BF3068800154D5FFF7AC
:1016F00051FC401B02284FF00300F5D9AFE700BFB3
:1017000030688001AAD5FFF745FC401B02284FF046
:101710000300F5D9A3E700210160FFF73BFC054674
:10172000306880077FF542AFFFF734FC401B02288A
:101730004FF00300F4D992E7306A40F004003062C1
:10174000306A40F001003062FFF724FC002D0546AE
:1017500041F2883714D000BF306A800713D4FFF7F6
:1017600019FC401BB842F7D9032002B0BDE8F08154
:10177000FFF710FC401BB8424FF003003FF66FAF7D
:10178000306A8007F4D4B8F1000F7FF453AFF069EA
:1017900020F08050F0614DE7206AB0F5803F05D120
:1017A0007168A26821F40031114371607168626A46
:1017B00021F4741110430843706001203866FFF76C
:1017C000E9FB0446306880013FF548AFFFF7E2FBD4
:1017D000001B02284FF00300F4D940E780B500F069
:1017E00059FD80BD10B590F83C20012A4FF002024F
:1017F00031D0012380F83C3080F83D200268D2F8D7
:1018000004E0D2F808C00C682EF07003234340F2C5
:10181000FF74C4F20004A242536005DCB2F1804FB1
:101820000ED040F2004307E042F60043C4F2010349
:101830009A4205D040F60003C4F200039A4204D154
:1018400049682CF08003194391600121002280F83F
:101850003D1080F83C20104610BD0000002804BF59
:101860000120704710B5044690F83D0028B90020CB
:1018700084F83C00204600F01FF8022084F83D0068
:101880002068211D00F062FD012084F8460084F8E4
:101890003E0084F83F0084F8400084F8410084F85A
:1018A000420084F8430084F8440084F8450084F83A
:1018B0003D00002010BD000081B00068B0F1804FF5
:1018C00001D001B0704741F21C00C4F2020001686F
:1018D00041F001010160006800F0010000900098F3
:1018E00001B0704710B5044690F83C0001284FF055
:1018F000020008BF10BD012284F83C2084F83D009E
:1019000020684FF6777382689A4382600A684F2A8C
:101910000FDC1F2A22DD202A23D0302A21D0402AA2
:101920004DD14B68CA68194600F040FE206840213E
:101930003BE06F2A17DDB2F5005F20D0B2F5805F83
:101940002AD0702A3BD1D1E9012CCB68614600F046
:101950005DFD2068816841F077011AE00AB1102A24
:101960002DD1114621E0502A18D0602A27D14B688A
:10197000CA68194600F02CFE2068602115E0D1E904
:10198000012CCB68614600F041FD2068816841F47C
:101990008041816000200BE0002009E04B68CA68AC
:1019A000194600F003FE2068502100F03BFD0020A6
:1019B000012184F83D10002184F83C1010BD012065
:1019C000F6E7000080B586B00068B0F1804F4FF0B8
:1019D0000000CDE90400CDE9020001D006B080BDD1
:1019E00041F21800C4F20200016841F004010160F4
:1019F000006802A900F00400019001980120029003
:101A000002200390059040F60000C4F20100FFF7A9
:101A1000BDF906B080BD0000B0B5044690F83C00AA
:101A2000012804BF0220B0BD0D464FEAB2010120DB
:101A3000032984F83C0037D8DFE801F0020A1222BB
:101A40002068294600F0F6FC206850F8181F0EE0C8
:101A50002068294600F01EFD206850F8181F16E087
:101A60002068294600F04AFD206850F81C1F41F00C
:101A700008010160016821F00401016029690FE09B
:101A80002068294600F06CFD206850F81C1F41F4C6
:101A900000610160016821F4806101602969090227
:101AA0000268114301600020002184F83C10B0BDA1
:101AB000002804BF0120704710B5044690F83D008F
:101AC00028B9002084F83C00204600F01FF80220CE
:101AD00084F83D002068211D00F038FC012084F8C6
:101AE000460084F83E0084F83F0084F8400084F803
:101AF000410084F8420084F8430084F8440084F8EC
:101B0000450084F83D00002010BD00007047000033
:101B1000B0B5044641B1082909D0042914BF04F125
:101B2000410004F13F0004E004F13E0001E004F153
:101B30004000007801281CBF0120B0BD022041B147
:101B4000082909D0042914BF84F8410084F83F0013
:101B500004E084F83E0001E084F84000206842F68A
:101B600044450122C4F2010500F03EFC2068A5F1C5
:101B70004401884203D1296841F40041296040F2C0
:101B8000FF71C4F20001884205DCB0F1804F0ED035
:101B900040F2004107E042F60041C4F201018842F0
:101BA00005D040F60001C4F20001884206D18168E8
:101BB00001F00701062904BF0020B0BD016841F013
:101BC000010101600020B0BD70B582B0044690F8FC
:101BD0004200202822D100294FF0010518BF002A19
:101BE0001DD00125002620462563666300F0EAFD2E
:101BF000206B012813D1019620680168019140688B
:101C000001900198206850E8030F216840F010000F
:101C100041E80302002AF5D1002500E0022528460C
:101C200002B070BDB0B540F20404C2F20004204618
:101C3000618601F08BF840F28015C2F200056086E3
:101C40002046294600F016FF2846214600F044FFB2
:101C5000A28E40F21810C2F200002146FFF7B4FF36
:101C6000B0BD000070470000B0B582B00368044604
:101C70001868D9685A6900F02F05202D01F0200559
:101C800005D125B1204600F0F1FC02B0B0BD5FEAFD
:101C9000007C1EBF02F0010E01F4907212EB0E02E6
:101CA0004AD1226B0840C1063DD5012A3BD1002014
:101CB0000190186801905868019001985869400691
:101CC00042D4A08DE18DE28D002A1CBF401A5FEA4C
:101CD000004101D102B0B0BD216851E8031F226864
:101CE00021F4907142E80313002BF5D1216851E8EB
:101CF000051F226821F0010142E80513002BF5D1F0
:101D0000202184F842100021216300BF216851E89E
:101D1000031F226821F0100142E80313002BF5D1C4
:101D20000221616354E0010658D44006D2D5204612
:101D300000F090FC02B0B0BDC20718BF11F4807271
:101D400051D1420755D45BE0E06B016849688AB223
:101D5000002ABFD0A38D9A42BCD2E1858069202899
:101D600031D000BF206850E8030F216820F4807054
:101D700041E80302002AF5D1206850E8050F2168E8
:101D800020F0010041E80502002AF5D1206850E862
:101D9000050F216820F0400041E80502002AF5D136
:101DA000202084F842000020206300BF206850E813
:101DB000030F216820F0100041E80302002AF5D14A
:101DC000E06BFEF795FE02206063A08DE18D401A66
:101DD00081B22046FFF726FF02B0B0BD204600F0DA
:101DE0000BFD02B0B0BD626C42F0010262644207BA
:101DF00006D5BEF1000F03D0626C42F002026264AD
:101E0000820706D5BEF1000F03D0626C42F00402D7
:101E10006264BCF1000F06D55EEA050203D0626C75
:101E200042F008026264626C002A3FF453AF08403B
:101E3000800602D5204600F019FC20684069616CDC
:101E400000F0400001F00801401827D0204600F0C3
:101E5000D9FB2068406940061BD500BF206850E8C8
:101E6000050F216820F0400041E80502002AF5D165
:101E7000E06B70B142F2F551C0F600014163FEF72C
:101E800057FE00283FF426AFE06B416B884702B055
:101E9000B0BD2046FFF7E6FE02B0B0BD2046FFF71A
:101EA000E1FE0020606402B0B0BD0000002804BF65
:101EB0000120704710B5044690F8410028B9002071
:101EC00084F84000204600F021F8242084F84100E6
:101ED0002068C16821F40051C160204600F02AFC4E
:101EE0002068016921F490410161416921F02A01D2
:101EF0004161C16841F40051C1600020202160644B
:101F000084F8411084F84210606310BD70B586B04B
:101F100040F60004C4F20104006804F540510026B4
:101F200088420596CDE90366029601D006B070BDE1
:101F300041F21800C4F20200016802AD41F4804190
:101F40000160016801F4804101910199016841F04B
:101F5000040101600068294600F004000190019826
:101F60004FF4007002900220039003200590204659
:101F7000FEF70CFF4FF48060CDE9020620462946AB
:101F80000496FEF703FF252000210022FFF778F8D2
:101F90002520FFF771F806B070BD00007047000003
:101FA0002DE9F041044690F8410020281CBF022092
:101FB000BDE8F0810E4600294FF0010042D01746DF
:101FC000002A08BFBDE8F0814FF0000821201D461F
:101FD000C4F8448084F84100FEF7DCFFA784E7845E
:101FE000A1680746B1F5805F0DD12069002814BFB4
:101FF0003046B046064606E016F8010B21684860F8
:10200000E08C0138E084E08C80B1204680213A46A3
:102010002B4600F01BFCB8B9002EEDD138F8020BAE
:1020200021686FF35F2048600026E9E720464021E1
:102030003A462B4600F00AFC202184F84110002883
:1020400018BF0320BDE8F081202084F84100032060
:10205000BDE8F08170470000FEE70000B0B584B035
:1020600040F2A00042F200410024C2F20000C4F29B
:1020700001014FF4602201250394CDE9014404736A
:102080000475C261C0E9001484600561FEF73AFB83
:1020900070B90720CDE9010540F2A000C2F20000AE
:1020A00001A90394FEF7A2FA002804BF04B0B0BD52
:1020B000FEF78AF970B586B0002641F21800CDE926
:1020C0000466CDE90266C4F20200016840F60044ED
:1020D00041F0200101600168C4F2010401F0200117
:1020E000019101990168002241F004010160016839
:1020F0004FF4405501F0040101910199016841F04C
:102100000801016000684FF4405100F008000190A0
:1021100001982046FEF738FF01200295CDE903061D
:10212000022002AD059020462946FEF72FFE4FF40F
:102130008040CDE90206204629460496FEF726FE99
:1021400006B070BD10B58EB040F2D0000021C2F2D2
:1021500000004FF080424FF6FF730D91CDE90B1157
:10216000CDE90911CDE90711CDE90511CDE903113B
:10217000CDE90111C0E90021C0E90213016180210C
:102180008161FFF76BFB90BB4FF480500A9040F2E7
:10219000D000C2F200000AA9FFF7A4FB38BB40F24E
:1021A000D000C2F20000FFF783FC00BB40F2D00079
:1021B0000024C2F2000008A9CDE90844FFF712FB91
:1021C000A8B96020CDE9010440F2D000C2F20000BD
:1021D00001A9002203940594FFF71EFC38B940F2D0
:1021E000D000C2F20000FFF7EDFB0EB010BDFEF70D
:1021F000EBF8000080B540F2181043F60001C2F27F
:102200000000C4F2010100234FF00C0C4FF4E13246
:1022100080E80E00C0E90333C0E905C3C361FFF7DE
:1022200045FE002808BF80BDFEF7CEF8FEE700009F
:10223000FEE7000000F0070080F00703042B28BF32
:1022400004234FF0FF3C03380CFA03F338BF00209F
:10225000994381400CFA00F022EA000008437047DD
:102260007047000081B040F20000C2F20000006838
:1022700044F6D351C1F26201A0FB0101480A00906B
:1022800000BF0098411E00280091F9D101B07047AD
:1022900070470000B0B501380024B4EB106F1CBFCC
:1022A0000120B0BD4EF21005CEF2000568604FF07F
:1022B000FF300F2100F030FB0720AC602860204683
:1022C000B0BD000080B5FEF76BFE80BD70B594B068
:1022D0000AAC20462821FDF799FF01200A900E90B4
:1022E0004FF4E01000254FF4803102261390204671
:1022F0000995CDE90755CDE90555CDE90355CDE95A
:102300000155CDE90B15CDE91161FFF7E1F8C0B931
:102310000F20CDE905064FF48060CDE9080505A83A
:1023200002210795FEF7C0FF58B9022001904FF433
:102330000040039001A8FEF733FF002804BF14B04B
:1023400070BDFEF741F800007047000010B540F284
:10235000FF7E0368C4F2000E42F6004C7045C4F2E2
:10236000010C05DCB0F1804F0AD040F2004203E0DE
:10237000604505D040F60002C4F20002904203D14D
:102380004A6823F070031343704505DCB0F1804FB9
:102390000AD040F2004203E0604505D040F600025A
:1023A000C4F20002904203D1CA6823F4407313437D
:1023B00023F080024B69D1F800E08C681A43604535
:1023C0000260C462C0F828E002D10969CCF830107C
:1023D000012141610169C90708BF10BD016921F0F0
:1023E0000101016110BD000080B501F01F014FF037
:1023F000010CD0F820E00CFA01F32EEA030303628B
:10240000036A02FA01F11943016280BDD0F808C0E5
:1024100011432CF47F4C41EA032141EA0C01816015
:1024200070470000826822F07002114341F00701FA
:1024300081607047B0B5026A036A42F6004423F037
:1024400001030362D0F804E0D0F818C08B6822F0D2
:102450000202C4F20104A04242EA030205D1CB68A1
:1024600022F00C0223F004031A430B68A04207D1A8
:10247000D1E905452EF4407E44EA0E0444EA050EF7
:102480002CF073052B43C0F804E083614968416375
:102490000262B0BDB0B5026A036A42F6004423F09E
:1024A00010030362D0F804E0D0F818C08B6822F063
:1024B0002002C4F20104A04242EA031207D1CB6811
:1024C0006FF0400522F0C00205EA03131A430B68BF
:1024D000A04207D1D1E905452EF4406E4EEA8404AE
:1024E00044EA850E2CF4E64545EA0323C0F804E0EF
:1024F0008361496881630262B0BD0000B0B5026AC1
:10250000036A42F6004423F480730362D0F804E0C7
:10251000D0F81CC08B6822F40072C4F20104A042FF
:1025200042EA032207D1CB6840F2FF451B0222F4A6
:102530004062AB431A430B68A04207D1D1E905457D
:102540002EF4405E4EEA041444EA051E2CF0730596
:102550002B43C0F804E0C3614968C1630262B0BDA7
:10256000B0B5D0F820C0026A42F6004522F480528D
:1025700002624268C3690C68D1F808E0C4F2010540
:10258000A84204D14D6922F4804242EA851223F424
:10259000E64343EA04234260C3612CF400554968D2
:1025A00045EA0E3201640262B0BD0000D0F820C0DE
:1025B000036A23F001030362836923F0F00343EA13
:1025C00002122CF00A031943826101627047000075
:1025D000D0F820C0036A23F010030362836923F458
:1025E000704343EA02322CF0A00343EA01118261F6
:1025F0000162704780B5406A0021C185C184FFF740
:1026000031FB80BD016851E8031F026821F490711D
:1026100042E80313002BF5D1016851E8051F026859
:1026200021F0010142E80513002BF5D1016B0129CE
:102630000AD100BF016851E8031F026821F01001B0
:1026400042E80313002BF5D1202180F8421000212D
:102650000163704780B50168CA6822F04002CA6011
:10266000202180F84110FFF7F5FC80BD80B582B0D5
:1026700090F8421022291ED18268B2F5805F02D103
:10268000016900294AD0816AB2F5805F07D00AB992
:10269000026922B10268526802F07F0201E002681A
:1026A00052680A700121826A11448162C18D013928
:1026B0000A04C18501D002B080BD0168CA6822F059
:1026C0002002CA60CA6822F48072CA604A6922F095
:1026D00001024A61202180F8421000214163026B0F
:1026E000012A23D1016300BF016851E8031F02687A
:1026F00021F0100142E80313002BF5D101680A68AC
:10270000D20606D5002201920A6801924968019119
:102710000199818DFFF786FA02B080BD0168826A57
:1027200049686FF35F2111800221BCE7FFF736FC97
:1027300002B080BD10B504460068D4E902C2236926
:10274000016921F4405111430161616943EA0C02BE
:102750001143C26841F20C639A431143C16041695D
:10276000A26921F44071114343F60002C4F2010250
:102770009042416102D0FEF757FE01E0FEF766FE8F
:102780006268192148439100B0FBF1F048F21F51F3
:10279000C5F2EB11A0FB01235A096FF0630302FBA2
:1027A0000300322303EB0010A0FB0101F02303EA36
:1027B0005113206803EB0212C1F3431111448160ED
:1027C00010BD0000816200218285C2854164222102
:1027D00080F84210016921B10168CA6842F4807230
:1027E000CA600168486940F001004861C86840F06B
:1027F00020020020CA60704790F84110212923D19F
:102800008168B1F5805F01D1016931B1016A026867
:102810004B1C03620978516007E0016A036831F8D4
:10282000022B6FF35F225A600162C18C01390A04E6
:10283000C18418BF70470068C16821F08001C16081
:10284000C16841F04001C160704700002DE9F041CE
:1028500082B00446006800680840884203D1002026
:1028600002B0BDE8F0811D460E4690465F1C04E0B4
:10287000206800683040B04228D0002FF8D0FEF722
:1028800089FB01464FF003000DB3A1EB0801A942FB
:102890001DD82068C1684907EAD5402EE8D0802EAF
:1028A000E6D001680907E3D500250195016801918B
:1028B0004068019001982046FFF7A4FE082060645C
:1028C00084F84050012002B0BDE8F081002002B041
:1028D000BDE8F08180B540F21810C2F20000FFF7A9
:1028E000C3F980BDFEE70000002848BF704700F034
:1028F0001F01012202FA01F14EF200124009CEF24C
:10290000000242F8201070474EF60C50CEF2000044
:102910000068C0F3022070474EF6145300F00F0217
:10292000CEF2000309011A4400F16043B0F1FF3F09
:10293000C8BF03F564421170704700004EF60C5199
:10294000CEF200010A684FF6FF031A4060F30A2234
:1029500042F0806040F0FD70086070474EF60C5009
:10296000BFF34F8FCEF200000168042201F4E06152
:10297000C0F2FA5211430160BFF34F8F00BFFDE771
:10298000B0B50446408E02281AD30020002505E089
:10299000618E0135A8B20139814211DD215CAE2979
:1029A000F6D10130215C55390229F1D381B220469C
:1029B000A62200F00DF838B9608E01306086E7E796
:1029C00094F83200C0B2B0BD0020C0B2B0BD00006B
:1029D00010B5B0F832C08C4504D2838E9C4524BF1C
:1029E000012010BD8C450DD90CEB0003013B00BF4D
:1029F000ACF1010C13F801E91FFA8CF48C4283F856
:102A000002E0F5D84254002010BD0000F0B581B0BE
:102A100040F2A006C2F20006054630460C46FDF71D
:102A2000F7FF304601210127FDF72CFF3046FDF767
:102A300065FE00F03FFC4FF20001C4F27F5100F050
:102A400077FB00F049FB46F26663C4F20A034FF0DD
:102A5000663200F043FA00F00FFA05216980C5F8EC
:102A60000700002029462246AF7100F0BDF9002082
:102A700001B0F0BD428E0A2A2BD30378AE2B28D1A9
:102A80004378552B25D1024412F8023CAE2B20D1BD
:102A900012F8012C562A1CD182780A70C2784A702A
:102AA0008288120412BA4A80C388002A1BBA4FEAED
:102AB00013438B8004BF002070470531C31D00BF46
:102AC00013F8010F013A01F8010F4FF00000F7D1A0
:102AD000704701207047000080B50278013A052A4E
:102AE00008D8DFE802F003090C0F1316FFF78EFF7A
:102AF000002080BD012080BD00F09AF880BD00F06C
:102B00004DF880BD00F05CF9002080BD00F006F8B3
:102B100080BD00F0D7F8002080BD000070B50546EC
:102B200040780C46022815D0012819D128460821E2
:102B300000F02EF8012813D0D5F80600D5F80A10B9
:102B400000BA00F06BF958B9002600202946224649
:102B50006E8018E02846042100F01AF8012805D1FB
:102B60002846214600F038F9012070BDD5F806004E
:102B700000BA00F0E9F8C5F80A00082068800020D3
:102B800029462246002600F02FF9304670BD00008D
:102B9000428800208A4238BF0120704770B50C4639
:102BA00003210546FFF7F4FF012805D128462146F9
:102BB00000F012F9012070BDB5F807004AF20023B9
:102BC000000400BA95F806C0002808BF01200204DE
:102BD000C0F24A43B3FBF2F228214FF6FF76C4F26B
:102BE0000001B24228BF32460A600A6801325043EF
:102BF000B3FBF0F048F21F520138B04238BF06462E
:102C0000701C00FB0CF0C5F2EB12A0FB0202C2F339
:102C10004F104E60C860012041F8140C00260020BF
:102C2000294622466E8000F0DFF8304670BD000075
:102C300070B50C4601210546FFF7AAFF012805D112
:102C40002846214600F0C8F8012070BDAA7940F658
:102C50000040C4F201004FF40051002A18BF0122C5
:102C6000FEF792F900260020294622466E8000F0E9
:102C7000BBF8304670BD0000FEF7A0F9FFF726FB59
:102C8000FFF718FAFFF7B6FAFFF7E8F9FFF75AFA75
:102C900040F20401C2F200018A8E40F21810C2F222
:102CA0000000FEF791FF40F2D000C2F200000021C8
:102CB000FEF72EFF40F2A000C2F20000FDF71EFC5E
:102CC000FEE7000080B5024640780B4611461A46E2
:102CD00000F08AF8002080BD70B5064648880C4692
:102CE000B18E0A30884202D9002080B270BD3046D1
:102CF000FDF76AFA45F2AE5030802078B070607807
:102D0000F070E0783071A07870716079B0712079DE
:102D1000F07162886AB1601D06F108014FF0FF335F
:102D200010F8012FCD186A7062889D1C01339542FE
:102D3000F6D39019AE210172608856213044417259
:102D400060880A3080B270BD00687047B0B5044634
:102D5000408E02283CBFC0B2B0BD0020002505E077
:102D6000618E0135A8B24A1E82420EDD215CAE2979
:102D7000F6D10130215CA629F2D181B2204600F0C3
:102D800007F8608E01386086EAE7C8B2B0BD00007F
:102D9000428E8A423CBF01207047428E531E8B42B6
:102DA00009DD0A4643185B7801324354438E91B2E1
:102DB000013B8B42F6DC0021C154084670470000FD
:102DC00080B50A46014600204880002000F00CF83B
:102DD000FEF76AF9002080BD80B50A460146022050
:102DE00000F002F880BD000010B5144602284870BB
:102DF00004BF002048802046FFF76EFF6086204613
:102E0000FFF7BEFD0246608640F21810C2F20000D5
:102E100021466423FFF7C4F810BD000070B586B0EA
:102E20000026019672B60C460546FDF797FF40F264
:102E3000FF30E91C25EA00006FF30901049002222B
:102E4000814202A801A9029608BF01220592FDF75E
:102E5000C7FE20B1FDF71EFF62B6012409E0022083
:102E6000294622460023FDF71FFF62B60446FDF700
:102E700011FF204606B070BD21F0004201F0004372
:102E8000A2F16052B2F5801F28BFD2F17F6C0BD93E
:102E90005FEA001C43EAC20242EB507018BF704761
:102EA00028BF20F001007047B2F5801FBCBF184654
:102EB00070474FEA410C1CF5001F02D2084600F093
:102EC00052BA70B500F0B4F800000089FFF7F6BF01
:102ED0004FF00040A0F580007047000070B5DFF8AB
:102EE00048C11CEA111E1EBF1CEA13159EEA0C0FF6
:102EF00095EA0C0F00F06F8081EA03044EEAD47E5D
:102F0000AE4421EA4C1123EA4C1341F4801143F4FE
:102F10008013AEF17F7EA1FB024CA0FB0365361946
:102F200055EB0C05A1FB034C4CF10003A0FB021C6C
:102F300016EB0C06654153F10003094218BF46F039
:102F4000010613F4007F0BD14FEA03314FEA05303D
:102F500041EA155140EA165034036FF003020AE0CB
:102F60004FEAC3214FEAC52041EA555140EA565085
:102F7000F4026FF0020202EB2E4201EB025585EAE9
:102F8000CE710AD05FEA440C18BF24F0004450F11F
:102F9000000041F1000120EAD47040F2FE7C62455D
:102FA00000D270BDA84214BF4FF080444FF040449F
:102FB000002E08BF0024BEF1806FA8BFA1F1C04160
:102FC000BDE8704080F2828001F1C04101F0004113
:102FD0004FF0000070470CEA13159EEA0C0F18BF63
:102FE00095EA0C0F06D081EA030E4FF000000EF0B8
:102FF000004170BD00F01CF88900013E00F007B8E8
:1030000000F009B84FEA430C5FEA5C5C08D081EA43
:10301000030100F05BB84FEA410C5FEA5C5CF6D15B
:1030200002494FF0000070470000FF070000F87FE2
:103030000EF1020E2EF0030E5EF8046B364205D43C
:10304000012A43EB030515F5001F12D8012841EBB7
:10305000010C1CF5001F0CD80ED14FEAD17C0CEBF3
:103060004C0C0CF1020C15F5001F08BF4CEBD37C87
:1030700004E04FF0080C01E04FEAD37C0CEB4C0568
:1030800026FA05F606F00706B6F1040C06D20EEB9A
:10309000860CBDE870404CF0010C6047DFE80CF096
:1030A000090B02024FF00041A1F500214FF0000092
:1030B00070BD19461046012851EB010418BFD4F524
:1030C000001484BF002001F0004170BD0808A0F585
:1030D00000114FEA3101704743004FEAD30C4FEA29
:1030E0003C0C43401FBF40070CF1605113F0FE4FF2
:1030F00070471CF0006F03D10CF0004100207047B6
:103100000CF0004343EA507040EACC0010B500F0E8
:10311000E4F800BF000000924FEA0001FFF7D6BFBD
:103120004FF00041A1F500214FF000007047000072
:103130004FF47F0C1CEAD0121EBF1CEAD11392EA96
:103140000C0F93EA0C0F00F0858090EA010F48BF46
:1031500042F4807240F4000C41F400002CF07F41F6
:1031600020F07F4000B5A2EB030281420FF2081C61
:10317000ACEB504E9EF800E0C0F100004FEA4E0E5E
:1031800000FB0EFC38BF49004FEA2C1C0CFB0EF371
:103190004FEACE1E0EEB635E4FEA112C0EFB0CFCC9
:1031A0004FEAC1214FEA1C5300FB031102F5FA025A
:1031B0004FEA112C0EFB0CFC4FEA01314FEADC4CBC
:1031C00000FB0C1142EB2242C14228BF09184CEB14
:1031D00003335DF804EB10EB410143EBC250B2F551
:1031E0007C0F38BF704729D512F0F00F1CBF00F1DB
:1031F000C04000F00040704700818283848586874C
:1032000088898B8C8D8E8F919293959697999A9CA5
:103210009D9FA0A2A3A5A7A8AAACAEB0B2B3B5B714
:10322000B9BCBEC0C2C5C7C9CCCED1D4D7D9DCDFEA
:10323000E2E6E9ECF0F3F7FAFE0000004FEA400C9A
:103240000CF1807CBCF17E4F28BF7047B0F1C040CC
:1032500000F089B80CEAD11390EA010F48BF42F49C
:103260008072624538BF634507D213F47F0F16D0D2
:1032700080EA010000F00040704710B500F02DF822
:10328000097EFC3E00F005B880EA010000F0004035
:10329000704780EA010000F0004000F064B812F4CA
:1032A0007F0F04BF0248704780EA010000F05BB85E
:1032B0000000C07FB0FA80F310FA03F2C3F19D035F
:1032C0000AD0D90501EB1220530638BF704700F130
:1032D000010008BF20F0010070470EF1020E2EF031
:1032E000030E5EF8044B244204D44FEA4102B2F1CB
:1032F0007F4F11D84FEA4003B3F17F4F0CD80ED166
:103300004FEAD07C0CEB4C0C0CF1020CB2F17F4F6D
:1033100008BF4CEBD17C04E04FF0080C01E04FEA11
:10332000D17C0CEB4C0324FA03F404F00704B4F151
:10333000040C06D20EEB840CBDE810404CF0010CDE
:103340006047DFE80CF0070802024FF00040A0F5EC
:10335000800010BD0846420018BFD2F1807288BFBD
:1033600000F0004010BDFF2141EAD050C005704779
:103370000000000000000000010203040607080925
:103380000000000001020304A83300080000002030
:103390004000000028010008E83300084000002039
:1033A000780700004401000800127A0000000000C5
:1033B000000000000000000000000000000000000D
:1033C00000000000000000000000000000000000FD
:1033D00000000000000000000000000000000000ED
:0833E0003200010010000000A2
:04000005080000ED02
:00000001FF
