:020000040800F2
:10000000200700208901000895110008C51000088C
:1000100091110008D50200088515000800000000B5
:10002000000000000000000000000000F5110008C2
:10003000D902000800000000C511000829120008BC
:10004000A3010008A3010008A3010008A301000800
:10005000A3010008A3010008A3010008A3010008F0
:10006000A3010008A3010008A3010008A3010008E0
:10007000A3010008A3010008A3010008A3010008D0
:10008000A3010008A3010008A3010008A3010008C0
:10009000A3010008A3010008A3010008A3010008B0
:1000A000A3010008A3010008A3010008A3010008A0
:1000B000A3010008A3010008A3010008A301000890
:1000C000A3010008A3010008A3010008A301000880
:1000D000A301000875150008A3010008A30100088A
:1000E000A3010008A3010008A301000800F002F822
:1000F00000F03AF80AA090E8000C82448344AAF188
:100100000107DA4501D100F02FF8AFF2090EBAE885
:100110000F0013F0010F18BFFB1A43F0010318473B
:100120000418000024180000103A24BF78C878C1D1
:10013000FAD8520724BF30C830C144BF04680C60ED
:10014000704700000023002400250026103A28BF35
:1001500078C1FBD8520728BF30C148BF0B60704739
:100160001FB51FBD10B510BD00F07AF81146FFF79E
:10017000F7FF01F033FB00F098F803B4FFF7F2FF4C
:1001800003BC00F09FF80000094880470948004779
:10019000FEE7FEE7FEE7FEE7FEE7FEE7FEE7FEE737
:1001A000FEE7FEE704480549054A064B7047000094
:1001B00091120008ED000008200100202007002017
:1001C00020030020200300204FF000020429C0F08B
:1001D000128010F0030C00F01B80CCF1040CBCF179
:1001E000020F18BF00F8012BA8BF20F8022BA1EBCB
:1001F0000C0100F00DB85FEAC17C24BF00F8012BB0
:1002000000F8012B48BF00F8012B70474FF00002A7
:1002100000B5134694469646203922BFA0E80C50FC
:10022000A0E80C50B1F12001BFF4F7AF090728BFD7
:10023000A0E80C5048BF0CC05DF804EB890028BF53
:1002400040F8042B08BF704748BF20F8022B11F07C
:10025000804F18BF00F8012B7047704770477047F8
:10026000754600F02BF8AE4605006946534620F06F
:100270000700854618B020B5FFF794FFBDE8204081
:100280004FF000064FF000074FF000084FF0000B52
:10029000AC46ACE8C009ACE8C009ACE8C009ACE8C1
:1002A000C00921F007018D46704710B50446AFF331
:1002B00000802046BDE81040FFF75FBF0048704750
:1002C0001000002001491820ABBEFEE72600020006
:1002D00070470000FEE700007047000072B600BFE4
:1002E000FEE70000014690F82100022813D10868BB
:1002F000D1E90FC3026822F00E020260026822F008
:1003000001020260012000FA03F2CCF8042081F817
:100310002100002002E0042088630120002281F8EF
:100320002020704780B590F82110022923D102685F
:10033000116821F00E0111602F211368C4F202012F
:100340008A4240F20401C4F2020123F00103136067
:1003500016DD3023C4F202039A421DD04423C4F2B6
:1003600002039A421BD05823C4F202039A421BD1C3
:100370004FF4803320E0042181630121084680BDD1
:100380000823C4F202039A420CD01C23C4F20203D5
:100390009A4209D110230FE04FF480730CE04FF420
:1003A000805309E0012307E001F1680C4FF08073EE
:1003B000624508BF4FF480130B60012180F82110C3
:1003C000426B002180F820100AB1904700210846B6
:1003D00080BD00002DE9F04F82B00E68002E00F0C5
:1003E000F38041F20042C4F20102042340F2004EC5
:1003F000904208BF03234FF6FF7CC4F2010E009326
:1004000000240123C1F2100C4FF0000A4FF0000944
:1004100041E0012504F00C030F279F402BEA07075A
:1004200005FA03F33B4342F826304E6840F20C4590
:10043000F202DEF8082054BF22EA080242EA08026B
:10044000C4F20105CEF808202A68B30254BF22EA9C
:10045000080242EA08022A60B303DEF8042054BF0F
:1004600022EA080242EA0802F303CEF80420DEF88A
:1004700000204FF0010354BF22EA080242EA0802BA
:10048000CEF800200E680AF1010A36FA0AF204F1E9
:10049000040400F0998003FA0AFB16EA0B08F1D075
:1004A0004A68624510DC122A50D8DFE802F0330AAD
:1004B00041454F4F4F4F4F4F4F4F4F4F4F4F4F486B
:1004C0004C00D1F80C9041E04FF6FF75C1F22105C8
:1004D000AA420FDC0025C1F21105AA421AD000255C
:1004E000C1F21205AA4215D00025C1F22105AA4287
:1004F00010D02BE00025C1F22205AA420AD0002527
:10050000C1F23105AA4205D00025C1F23205AA4246
:100510001CD100BF8A6842B1012A14BFC0F814B0D0
:10052000C0F810B04FF0080910E04FF004090DE0DA
:10053000CA6802F1080909E04FF0000906E0CA683C
:1005400002F1040902E0CA6802F10C0922460546DC
:10055000B8F5807F24BF203A04352E680F279740D6
:10056000BE4309FA02F232432A60CA79D2067FF505
:1005700089AF41F21803C4F202031A684FEA9A06DF
:1005800042F001021A601A6840F6000302F001020C
:100590000192019AAEF57E7252F826B0C4F20103C0
:1005A00098420FD040F60043C4F2010398423FF452
:1005B00030AF41F20003C4F20103009D984208BF2E
:1005C000022527E7002525E702B0BDE8F08F0000EF
:1005D0008068084018BF012070470000002A08BF4B
:1005E000090401617047000040F21C10C2F20000D3
:1005F0000068704740F2040040F21C11C2F2000093
:10060000C2F2000100780A681044086070470000D8
:1006100080B542F20000C4F20200016841F010010E
:100620000160032000F05EF80F2000F005F800F0F4
:100630002BF8002080BD0000B0B540F20402C2F2E9
:10064000000240F200011278C2F200014FF47A7306
:100650000968B3FBF2F20446B1FBF2F1084600F080
:10066000E1FA0F2C4FF001050CD858B94FF0FF30CC
:1006700021460022002500F025F840F20800C2F2D1
:10068000000004602846B0BD82B041F21800C4F2F8
:100690000200016841F001010160016801F00101FF
:1006A00001910199416841F080514160406800F03A
:1006B00080500090009802B07047000080B500F0B4
:1006C00063FF80BD70B514460D46064600F06CFF12
:1006D0002946224600F060FD0146304600F06CFFDE
:1006E00070BD000080B500F079FF80BD00F086FF8E
:1006F0002DE9F04381B0002800F0898042F2000823
:10070000C4F202080446D8F800000D4600F00700C5
:1007100088420CD2D8F8000020F007002843C8F81F
:100720000000D8F8000000F00700A8426FD1206850
:1007300041F204098107C4F2020917D5410705D522
:10074000D9F8001041F4E061C9F80010010705D59F
:10075000D9F8001041F46051C9F80010D9F8001020
:10076000A26821F0F0011143C9F80010C00745D17B
:10077000D8F8000000F00700A8420CD9D8F8000013
:1007800020F007002843C8F80000D8F8000000F067
:100790000700A8423BD12068410707D5D9F80010CF
:1007A000E26821F4E0611143C9F80010000708D5A0
:1007B000D9F80000216920F4605040EAC100C9F86E
:1007C000000000F079F8D9F8001041F60C12C1F3DE
:1007D0000311C0F60002515C40F2000220FA01F160
:1007E00040F20800C2F200000068C2F2000211608C
:1007F000FFF722FF002001B0BDE8F0836068022807
:1008000009D0012829D159F8041C890307D40120F3
:1008100001B0BDE8F08359F8041C8901F7D5D9F877
:10082000001021F003010843C9F80000FFF7DCFEC7
:10083000064641F2883700BFD9F80000616800F031
:100840000C00B0EB810F93D0FFF7CEFE801BB842B7
:10085000F2D9032001B0BDE8F08359F8041C8907E0
:10086000D5D5DCE740F20000C2F200000068704716
:1008700080B5FFF7F7FF41F20401C4F202010968F5
:1008800041F61C12C1F30221C0F60002515CC840BF
:1008900080BD000080B5FFF7E5FF41F20401C4F21E
:1008A0000201096841F61C12C1F3C221C0F6000220
:1008B000515CC84080BD000041F2040CC4F2020C3F
:1008C000DCF8003003F00C00082841F20020C0F2F0
:1008D0007A0018BF7047C3F383420AA18A5CD90328
:1008E00005D440F60010C0F23D0050437047DCF8DC
:1008F000001008A3C1F34041595C5043B0FBF1F034
:10090000704700BF02030405060708090A0B0C0D17
:100910000E0F1010010200002DE9F04182B00028F6
:1009200000F0C4800446007841F20006C007C4F21B
:10093000020643D0706800F00C00042817D07068DD
:1009400000F00C00082802D17068C0030FD465685D
:100950002DB1B5F5A02F10D0B5F5803F11D030687E
:1009600020F480303060306820F480200CE0306863
:10097000800323D5606808BB98E0306840F480208D
:100980003060306840F480303060FFF72DFE002D7D
:10099000054610D03068800310D4FFF725FE401BB9
:1009A0006428F7D904E100BFFFF71EFE401B64284E
:1009B0004FF0030077D830688003F5D420788007A3
:1009C00018D5706810F00C0F07D0706800F00C009C
:1009D000082826D17068C00323D43068800702D568
:1009E0002069012862D13068616920F0F80040EA8E
:1009F000C1003060207800073DD5A06938B30020E1
:100A0000C4F242200121C0F88014FFF7EDFD054635
:100A1000706A80072DD4FFF7E7FD401B0228F7D945
:100A2000C6E02069002840F20000C4F2422000F035
:100A3000968001210160FFF7D7FD054630688007E9
:100A4000D1D4FFF7D1FD401B0228F7D9B0E0002038
:100A5000C4F242200021C0F88014FFF7C5FD05460E
:100A6000706A800707D5FFF7BFFD401B0228F7D942
:100A70009EE000F0A9FB207840071BD4E5698DB10A
:100A8000706800F00C00082847D1012D0ED0706866
:100A9000216A00F480328A4208D1616A00F4701041
:100AA000884203D1002002B0BDE8F081012002B0ED
:100AB000BDE8F081F06910F0805808D1F06940F08D
:100AC0008050F061F06900F080500190019847F289
:100AD0000007C4F200073868C00510D4386840F435
:100AE00080703860FFF780FD054600BF3868C0059C
:100AF00005D4FFF779FD401B6428F7D958E0E56875
:100B00001DB1052D3CD0012D3ED0306A20F00100F2
:100B10003062306A20F0040039E00027C4F2422736
:100B200000203866FFF760FD022D05460CD100BF9E
:100B30003068800154D5FFF757FD401B02284FF065
:100B40000300F5D9AFE700BF30688001AAD5FFF7F1
:100B50004BFD401B02284FF00300F5D9A3E700210D
:100B60000160FFF741FD0546306880077FF542AF21
:100B7000FFF73AFD401B02284FF00300F4D992E73B
:100B8000306A40F004003062306A40F001003062A8
:100B9000FFF72AFD002D054641F2883714D000BF2B
:100BA000306A800713D4FFF71FFD401BB842F7D906
:100BB000032002B0BDE8F081FFF716FD401BB842EC
:100BC0004FF003003FF66FAF306A8007F4D4B8F1FE
:100BD000000F7FF453AFF06920F08050F0614DE7D3
:100BE000206AB0F5803F05D17168A26821F4003118
:100BF000114371607168626A21F4741110430843F3
:100C0000706001203866FFF7EFFC04463068800111
:100C10003FF548AFFFF7E8FC001B02284FF0030048
:100C2000F4D940E780B500F0E7FA80BD70B582B036
:100C3000044690F84200202822D100294FF00105F7
:100C400018BF002A1DD001250026204625636663B3
:100C500000F008FC206B012813D101962068016880
:100C60000191406801900198206850E8030F2168C5
:100C700040F0100041E80302002AF5D1002500E011
:100C80000225284602B070BDB0B540F2E60440F23D
:100C90001815C2F20004C2F200052046298000F0B7
:100CA000E9FD288040F2B805C2F200050146204661
:100CB0002A4600F007FD284600F034FD40F270009F
:100CC000C2F2000021463222FFF7B0FFB0BD0000A3
:100CD00070470000B0B582B0036804461868D96850
:100CE0005A6900F02F05202D01F0200505D125B10E
:100CF000204600F00BFB02B0B0BD5FEA007C1EBFD7
:100D000002F0010E01F4907212EB0E024AD1226B36
:100D10000840C1063DD5012A3BD10020019018684A
:100D200001905868019001985869400642D4A08DFE
:100D3000E18DE28D002A1CBF401A5FEA004101D11B
:100D400002B0B0BD216851E8031F226821F4907100
:100D500042E80313002BF5D1216851E8051F2268F2
:100D600021F0010142E80513002BF5D1202184F880
:100D700042100021216300BF216851E8031F22684F
:100D800021F0100142E80313002BF5D10221616329
:100D900054E0010658D44006D2D5204600F0AAFA05
:100DA00002B0B0BDC20718BF11F4807251D1420722
:100DB00055D45BE0E06B016849688AB2002ABFD075
:100DC000A38D9A42BCD2E1858069202831D000BF32
:100DD000206850E8030F216820F4807041E8030286
:100DE000002AF5D1206850E8050F216820F00100A5
:100DF00041E80502002AF5D1206850E8050F216876
:100E000020F0400041E80502002AF5D1202084F8B6
:100E100042000020206300BF206850E8030F2168D3
:100E200020F0100041E80302002AF5D1E06BFFF743
:100E300059FA02206063A08DE18D401A81B22046EC
:100E4000FFF722FF02B0B0BD204600F025FB02B044
:100E5000B0BD626C42F001026264420706D5BEF189
:100E6000000F03D0626C42F002026264820706D572
:100E7000BEF1000F03D0626C42F004026264BCF168
:100E8000000F06D55EEA050203D0626C42F008024C
:100E90006264626C002A3FF453AF0840800602D5BA
:100EA000204600F033FA20684069616C00F0400091
:100EB00001F00801401827D0204600F0F3F920681F
:100EC000406940061BD500BF206850E8050F216827
:100ED00020F0400041E80502002AF5D1E06B70B136
:100EE00041F29521C0F600014163FFF71BFA00288B
:100EF0003FF426AFE06B416B884702B0B0BD20469F
:100F0000FFF7E6FE02B0B0BD2046FFF7E1FE00208D
:100F1000606402B0B0BD0000002804BF012070472B
:100F200010B5044690F8410028B9002084F840002C
:100F3000204600F021F8242084F841002068C16890
:100F400021F40051C160204600F044FA2068016994
:100F500021F490410161416921F02A014161C16898
:100F600041F40051C16000202021606484F84110E8
:100F700084F84210606310BD70B586B040F600047E
:100F8000C4F20104006804F5405100268842059629
:100F9000CDE90366029601D006B070BD41F218009B
:100FA000C4F20200016802AD41F4804101600168B1
:100FB00001F4804101910199016841F0040101604F
:100FC0000068294600F00400019001984FF4007079
:100FD000029002200390032005902046FFF7FAF9C3
:100FE0004FF48060CDE90206204629460496FFF7BB
:100FF000F1F9252000210022FFF764FB2520FFF7EF
:101000005DFB06B070BD0000704700002DE9F041A7
:10101000044690F8410020281CBF0220BDE8F08162
:101020000E4600294FF0010042D01746002A08BFA3
:10103000BDE8F0814FF0000821201D46C4F844802F
:1010400084F84100FFF7D0FAA784E784A168074637
:10105000B1F5805F0DD12069002814BF3046B0463D
:10106000064606E016F8010B21684860E08C01385E
:10107000E084E08C80B1204680213A462B4600F087
:1010800035FAB8B9002EEDD138F8020B21686FF3AC
:101090005F2048600026E9E7204640213A462B467B
:1010A00000F024FA202184F84110002818BF032002
:1010B000BDE8F081202084F841000320BDE8F081E4
:1010C00070470000FEE7000070B586B0002641F2D0
:1010D0001800CDE90466CDE90266C4F20200016899
:1010E00040F6004441F0200101600168C4F20104AF
:1010F00001F02001019101990168002241F00801ED
:10110000016001684FF4405501F008010191019917
:10111000016841F00401016000684FF4405100F0A3
:101120000400019001982046FFF758FA012002952B
:10113000CDE90306022002AD059020462946FFF7BF
:1011400049F94FF48040CDE902062046294604962D
:10115000FFF740F906B070BD80B540F2700043F66D
:101160000001C2F20000C4F2010100234FF00C0C98
:101170004FF4E13280E80E00C0E90333C0E905C353
:10118000C361FFF7C9FE002808BF80BDFFF7A6F8BE
:10119000FEE70000FEE7000000F0070080F0070314
:1011A000042B28BF04234FF0FF3C03380CFA03F351
:1011B00038BF0020994381400CFA00F022EA000079
:1011C000084370477047000081B040F20000C2F24F
:1011D0000000006844F6D351C1F26201A0FB010196
:1011E000480A009000BF0098411E00280091F9D1E4
:1011F00001B0704770470000B0B501380024B4EB6F
:10120000106F1CBF0120B0BD4EF21005CEF20005DC
:1012100068604FF0FF300F2100F0CEF90720AC607E
:1012200028602046B0BD000080B5FFF7E3F980BD1F
:1012300070B590B006AC20462821FEF7E7FF0120EC
:1012400006900A904FF4E01000254FF480310226FA
:101250000F9020460595CDE90355CDE90155CDE91F
:101260000715CDE90D61FFF757FB78B90F20CDE9E0
:1012700001064FF48060CDE9040501A80221039521
:10128000FFF736FA002804BF10B070BDFFF726F84C
:101290007047000080B5406A0021C185C184FFF716
:1012A00017FD80BD016851E8031F026821F49071A9
:1012B00042E80313002BF5D1016851E8051F0268CD
:1012C00021F0010142E80513002BF5D1016B012942
:1012D0000AD100BF016851E8031F026821F0100124
:1012E00042E80313002BF5D1202180F842100021A1
:1012F0000163704780B50168CA6822F04002CA6085
:10130000202180F84110FFF7DBFE80BD80B582B060
:1013100090F8421022291ED18268B2F5805F02D176
:10132000016900294AD0816AB2F5805F07D00AB905
:10133000026922B10268526802F07F0201E002688D
:1013400052680A700121826A11448162C18D01399B
:101350000A04C18501D002B080BD0168CA6822F0CC
:101360002002CA60CA6822F48072CA604A6922F008
:1013700001024A61202180F8421000214163026B82
:10138000012A23D1016300BF016851E8031F0268ED
:1013900021F0100142E80313002BF5D101680A681F
:1013A000D20606D5002201920A680192496801918D
:1013B0000199818DFFF768FC02B080BD0168826AE7
:1013C00049686FF35F2111800221BCE7FFF71CFE23
:1013D00002B080BD10B504460068D4E902C223699A
:1013E000016921F4405111430161616943EA0C0232
:1013F0001143C26841F20C639A431143C1604169D1
:10140000A26921F44071114343F60002C4F20102C3
:101410009042416102D0FFF72BFA01E0FFF73AFA60
:101420006268192148439100B0FBF1F048F21F5166
:10143000C5F2EB11A0FB01235A096FF0630302FB15
:101440000300322303EB0010A0FB0101F02303EAA9
:101450005113206803EB0212C1F343111144816060
:1014600010BD0000816200218285C2854164222175
:1014700080F84210016921B10168CA6842F48072A3
:10148000CA600168486940F001004861C86840F0DE
:1014900020020020CA60704790F84110212923D112
:1014A0008168B1F5805F01D1016931B1016A0268DB
:1014B0004B1C03620978516007E0016A036831F848
:1014C000022B6FF35F225A600162C18C01390A045A
:1014D000C18418BF70470068C16821F08001C160F5
:1014E000C16841F04001C160704700002DE9F04142
:1014F00082B00446006800680840884203D100209A
:1015000002B0BDE8F0811D460E4690465F1C04E027
:10151000206800683040B04228D0002FF8D0FFF794
:1015200063F801464FF003000DB3A1EB0801A94297
:101530001DD82068C1684907EAD5402EE8D0802E22
:10154000E6D001680907E3D50025019501680191FE
:101550004068019001982046FFF7A4FE08206064CF
:1015600084F84050012002B0BDE8F081002002B0B4
:10157000BDE8F08180B540F27000C2F20000FFF7D4
:10158000A9FB80BDFEE70000002848BF704700F0BF
:101590001F01012202FA01F14EF200124009CEF2BF
:1015A000000242F8201070474EF60C50CEF20000B8
:1015B0000068C0F3022070474EF6145300F00F028B
:1015C000CEF2000309011A4400F16043B0F1FF3F7D
:1015D000C8BF03F564421170704700004EF60C510D
:1015E000CEF200010A684FF6FF031A4060F30A22A8
:1015F00042F0806040F0FD70086070474EF60C507D
:10160000BFF34F8FCEF200000168042201F4E061C5
:10161000C0F2FA5211430160BFF34F8F00BFFDE7E4
:101620002DE9F04381B001294FF000070C46064632
:1016300088BF012702294FF0000022D391464FF0C6
:10164000A60800250AE000BF0135A1B2A8B2013901
:1016500081424FF00007C8BF012712DD315CAE297F
:10166000F2D10130315C55390229EDD3A1B283B2F8
:1016700030464A46CDF8008000F00AF808B9013437
:10168000E2E7F80718BF0024E0B201B0BDE8F0833C
:10169000914228BF8B4284BF0120704710B5DDF80E
:1016A00008C099420AD90A18013A00BF013912F854
:1016B00001E98CB29C4282F802E0F7D800F803C03E
:1016C000002010BD0A292AD30378AE2B27D14378F6
:1016D000552B24D1014411F8023CAE2B1FD111F837
:1016E000011C56291BD181781170C17851708188F5
:1016F000090409BA5180C38800291BBA4FEA134371
:10170000938004BF002070470532C31D13F8010FFA
:10171000013902F8010F4FF00000F7D170470120A6
:1017200070470000B0B50446007800250138052850
:101730004FD8DFE800F0031A4E354E440120608098
:1017400040F60040C4F201004FF48041FEF740FF34
:10175000002818BF012040F2E602A071C2F2000288
:10176000002021463223002516E0608898B3A27934
:1017700040F60040C4F201004FF40051002A18BFA7
:101780000122FEF72BFF40F2E6020025C2F2000222
:10179000002021463223658000F0A0F82846B0BD25
:1017A00040F2E6020025C2F2000200202146322368
:1017B000658000F093F8FEF799FF2846B0BD607889
:1017C00040F2E602C2F200022146322300F086F81F
:1017D00000252846B0BD0120B0BD0000FEF718FF6F
:1017E000FFF726FDFFF770FCFFF7B6FC40F2700034
:1017F00040F2E601C2F20000C2F200013222FFF71D
:1018000015FA00BFFEE7000070B5144652880A3290
:101810008A4202D9002080B270BD0646FEF7D4FC91
:1018200045F2AE5030802078B0706078F070E0788B
:101830003071A07870716079B0712079F071628830
:101840006AB1601D06F108014FF0FF3310F8012F57
:10185000CD186A7062889D1C01339542F6D39019A9
:10186000AE210172608856213044417260880A308E
:1018700080B270BD70B50C46022917D30546002012
:10188000002605E00136A1B2B0B2013981420DDD7A
:10189000295CAE29F6D10130295CA629F2D1A1B28A
:1018A00082B2284600F004F8013CEBE7E0B270BDDC
:1018B0008A4284BF01207047A1F1010C944508DDE4
:1018C000114600BF83185B78013183548AB2944576
:1018D000F8DC002100F80C1008467047B0B515463A
:1018E0000A464870284619461C46FFF78DFF0146F8
:1018F00028462246FFF794FE024640F27000C2F2EC
:10190000000029466423FFF781FBB0BD0000000002
:10191000000000000102030406070809000000009F
:101920000102030448190008000000201000000014
:1019300028010008581900081000002010070000B6
:10194000440100080000000000127A0001000000BD
:0819500010000000000000007F
:04000005080000ED02
:00000001FF
